:1017BC00B5B1C7B0B5E7B2CECA00B5E7D1B9A3BAD7
:1017CC00202020202020205600B5E7C1BFA3BA203E
:1017DC00202020202020574800CFFBB7D1A3BA20CF
:1017EC0020202020202059002564002E0012345681
:1017FC0078EDCBA9871234567801FE01FE0000006B
:07180C0001FFFFFFFFFFFFDA
:041DCA0041003D0097
:101C3700D3EF9400EE940040147D6E7C00ED1D7090
:0D1C4700011CED4C70F7EF1F70E61E80E3EE
:011C5400226D
:10000E00EF1F70011E144E600BE4FDEDC3947D5086
:04001E00EF0D80F76B
:0100220022BB
:101CC400438901758CB8E4F58AD28CD2A9D2AF903D
:081CD400000CF0900038F02232
:03000B00021B5283
:101B5200C0E0C083C082C0D0758CB8758A00900086
:101B620038E004F0C394324007E4F090000C04F033
:091B7200D0D0D082D083D0E03243
:101D2C00439850438920438780758DF443A890D203
:021D3C008E22F5
:0E1DA900C2ACC2998F993099FDC299D2AC227A
:1019FE00900100EBF0A3EAF0A3E9F0A3ECF0A3ED65
:011A0E00F0E7
:101A0F00E4FDFC900100E0FBA3E0FAA3E0F98D8276
:101A1F008C83120693FF121DA90DBD00010CD390EC
:0B1A2F000104E09D900103E09C50D8F2
:011A3A002289
:101AFE00EF6DFDE4FBED5401FAECC313FCED13FDA9
:101B0E00EC547FFCEAB40108EC64A0FCED6401FD2A
:091B1E000BEBB408E0AE04AF05C6
:011B2700229B
:0E15E700900100EBF0A3EAF0A3E9F0A3EDF011
:1015F50074FF900106F0A3F0E4900104F0A3F090CD
:101605000103E0FFC3900105E09F900104E0940011
:10161500503C900100E0FBA3E0FAA3E0F912067A42
:10162500FF900106E0FCA3E0FD121AFE900106EE14
:10163500F0A3EFF0900101E475F0011206F49001BA
:1016450005E004F070B9900104E004F080B1900168
:1016550006E0FEA3E0FDEEFCEDFEAD04EDFF90011E
:0616650006EEF0A3EFF019
:01166B00225C
:1018650090009E7401F0A37403F0E4A3F0A3744800
:10187500F0E4A3F0A37408F07B017A00799E7D065D
:101885001215E7900005EEF0A3EFF0900005E0904B
:1018950000A4F0900006E09000A5F07B017A0079A5
:0818A5009E7D087C000219FE83
:100ADA0090003DE064016003020C79F090000DF093
:100AEA00900014E0FFE4FCFDFE781012085CC004DC
:100AFA00C005C006C007900013E0FFE4FCFDFE78C5
:100B0A001812085CD003D002D001D000EF4BFFEEE0
:100B1A004AFEED49FDEC48FCC004C005C006C0070A
:100B2A00900015E0FFE4FCFDFE780812085CD00393
:100B3A00D002D001D000EF4BFBEE4AFAED49F9ECB6
:100B4A0048F8A3E0FFEB4FFFEAFEE9FDE8FC90005E
:100B5A003912086F90001CE0FFE4FCFDFE781012C9
:100B6A00085CC004C005C006C00790001BE0FFE493
:100B7A00FCFDFE781812085CD003D002D001D00028
:100B8A00EF4BFFEE4AFEED49FDEC48FCC004C00500
:100B9A00C006C00790001DE0FFE4FCFDFE780812C5
:100BAA00085CD003D002D001D000EF4BFBEE4AFA2A
:100BBA00ED49F9EC48F8A3E0FFEB4FFFEAFEE9FD47
:100BCA00E8FC90000112086F900020E0FFE4FCFDB1
:100BDA00FE781012085CC004C005C006C007900069
:100BEA001FE0FFE4FCFDFE781812085CD003D00277
:100BFA00D001D000EF4BFFEE4AFEED49FDEC48FC78
:100C0A00C004C005C006C007900021E0FFE4FCFD57
:100C1A00FE780812085CD003D002D001D000EF4B56
:100C2A00FBEE4AFAED49F9EC48F8A3E0FFEB4FFF77
:100C3A00EAFEE9FDE8FC9000DF12086FE47F0AFE95
:100C4A00FDFC9000DFE0F8A3E0F9A3E0FAA3E0FBE3
:100C5A0012073F90000712086FE4FFAE070FEE601D
:0F0C6A000E74102FF582E43400F583E4F080EC73
:010C79002258
:03002300020EA723
:100EA700C0E0C0F0C083C082C0D075D000C000C011
:100EB70001C002C003C004C005C006C007209803D4
:100EC700020F51C29890000DE0FF04F074102FF547
:100ED70082E43400F583E599F090000DE0B4010D4C
:100EE700900010E06401600590000DE4F090000DA3
:100EF700E0B4020D900011E06403600590000DE47A
:100F0700F090000DE0642670367B017A0079107D41
:100F1700231215E7900005EEF0A3EFF0900033E001
:100F2700FF900005E0B50717900034E0FF9000063A
:100F3700E0B5070B90003D7401F090000DE4F090D0
:100F4700000DE0D394264002E4F0D007D006D00588
:100F5700D004D003D002D001D000D0D0D082D0832B
:050F6700D0F0D0E032E3
:10038B00E47B107A27F9F8900039E0FCA3E0FDA399
:10039B00E0FEA3E0FF1207CA90011412086FE47B82
:1003AB00107A27F9F8900039E0FCA3E0FDA3E0FEFA
:1003BB00A3E0FF1207CAAC00AD01AE02AF03E47BB2
:1003CB000AFAF9F81207CA90011812086FE47B10A9
:1003DB007A27F9F8900001E0FCA3E0FDA3E0FEA36F
:1003EB00E0FF1207CA90010812086FE47B107A270E
:1003FB00F9F8900001E0FCA3E0FDA3E0FEA3E0FF11
:10040B001207CAAC00AD01AE02AF03E47B0AFAF9E6
:10041B00F81207CA90010C12086FE47B20FAF9F866
:10042B009000DFE0FCA3E0FDA3E0FEA3E0FF1207DA
:10043B00CA90010012086FE47B0AFAF9F89000DF0A
:10044B00E0FCA3E0FDA3E0FEA3E0FF1207CA9001CE
:10045B001C12086FE47B0AFAF9F89000DFE0FCA3AA
:10046B00E0FDA3E0FEA3E0FF1207CAAC00AD01AEB6
:10047B0002AF0390012012086FE47B20FAF9F89089
:10048B000007E0FCA3E0FDA3E0FEA3E0FF1207CA18
:10049B0090010412086FE47B0AFAF9F8900007E068
:1004AB00FCA3E0FDA3E0FEA3E0FF1207CA90012C22
:1004BB0012086FE47B0AFAF9F8900007E0FCA3E05E
:1004CB00FDA3E0FEA3E0FF1207CAAC00AD01AE0234
:1004DB00AF0390013012086F7F30121D667F0C1234
:1004EB001D667F06121D667F82121D667BFF7A17C3
:1004FB0079BC121CDC7F90121D667BFF7A1779C6C4
:10050B00121CDC7F88121D667BFF7A1779D5121CB3
:10051B00DC7F98121D667BFF7A1779E5121CDC7F56
:10052B0093121D6690013F74FFF0A37417F0A37430
:10053B00F4F0900114A3A3E0FFA3E0900142CFF0ED
:10054B00A3EFF07B017A00793E12008B7B017A00DE
:10055B00793E121CDC7BFF7A1779F7121CDC9001B9
:10056B003F74FFF0A37417F0A374F4F0900118A379
:10057B00A3E0FFA3E0900142CFF0A3EFF07B017A61
:10058B0000793E12008B7B017A00793E121CDC7FD6
:10059B008B121D6690013F74FFF0A37417F0A374C8
:1005AB00F4F090011CA3A3E0FFA3E0900142CFF075
:1005BB00A3EFF07B017A00793E12008B7B017A006E
:1005CB00793E121CDC7BFF7A1779F7121CDC900149
:1005DB003F74FFF0A37417F0A374F4F0900120A301
:1005EB00A3E0FFA3E0900142CFF0A3EFF07B017AF1
:1005FB0000793E12008B7B017A00793E121CDC7F66
:10060B009B121D6690013F74FFF0A37417F0A37447
:10061B00F4F090012CA3A3E0FFA3E0900142CFF0F4
:10062B00A3EFF07B017A00793E12008B7B017A00FD
:10063B00793E121CDC7BFF7A1779F7121CDC9001D8
:10064B003F74FFF0A37417F0A374F4F0900130A380
:10065B00A3E0FFA3E0900142CFF0A3EFF07B017A80
:0F066B0000793E12008B7B017A00793E021CDC85
:061DC400121A70021B2838
:101D3E00D2A7D2A6D2A5D2A4C297D297121C8F0236
:021D4E001DCFA7
:101D50007580FF7590FF75B0FF75A0FF121D2C02F6
:021D60001CC4A1
:10166C00121D3E121D50121938120003121D861243
:10167C00175D20A62F7F147E0012000E20A6F312F9
:10168C001DCF120ADA90000CE0B40105E4F0121838
:10169C00657FF47E0112000E12038B20A7E4C2A713
:1016AC00D2A680CE20A7CB7F147E0012000E20A7DE
:1016BC00C17B017A0079E37F5212155F90000BEF2A
:1016CC00F0600E121D50121938120003121D868084
:1016DC00E0121DCF121DC420A6D7C2A6D2A780929D
:1016EC0020202020202020202020202020202020EE
:1016FC000000003000480049C033E806380C180CD4
:10170C00080C000C000C000C000608031001E00093
:10171C000000000180024002C0024002C0024002F0
:10172C00C0024003C007E00FF00FF007E003C00059
:10173C00000000000000000000000000000000009D
:10174C00000000000000000000000000000000008D
:01175C00008C
:101D9800C295D296D2947580FFE58020E7FBC29465
:011DA8002218
:041D6200EE2480FFEC
:0E1D6600121D98C295C296D2948F80C294220C
:101C1500900231E0FBA3E475F00112070AA9F0FA7E
:041C250012067AFF2A
:0E1C2900121D98D295C296D2948F80C294223A
:101CDC0012067AFFD39400400C121C29740129F9C6
:061CEC00E43AFA80EB224D
:041D0600900100F058
:0F1D0A00900100E0FF200003021D66121C292239
:051DCF007F01021D660A
:101AA200C2007480121D067BFF7A1679EC121CDCD0
:101AB200C2007490121D067A1679EC121CDCC20068
:101AC2009001007488F0121D0A7A1679EC021CDC6F
:101C8F00C2B3D2B3D2B47F30121D667F0C121D6661
:0B1C9F00121DCF7F06121D66021AA264
:0A13B100900229EFF090022BEBF000
:1013BB007F36121D66ED64016004EDB4020C9002E1
:1013CB002F7480F0ED14C454F0FDED64036004ED54
:1013DB00B4040D90022F7488F0ED24FDC454F0FD7D
:1013EB00E4FEED24802EFF121D66900229E0FF9093
:1013FB00022FE02F14FF121D66E4FC90022BE0B4C9
:10140B000114A3E0FBA3E475F00112070AA9F0FA9B
:10141B0012067AF4801390022CE0FBA3E475F00122
:10142B0012070AA9F0FA12067AFF121C290CECB467
:0C143B0002C90EEEB410AB7F36021D6635
:0B1A3B00900236EFF0A3EDF0A3EBF0FB
:101A46007A1679FDA3E075F020A429F9EA35F0FAB3
:101A560090022C74FFF0A3EAF0A3E9F0900236E0BE
:0A1A6600FFA3E0FDA3E0FB0213B1B3
:0E0F6C00900230EFF0A3EBF0A3EAF0A3E9F05F
:100F7A00ED24FE600A14600F2402600302102A9016
:100F8A0002357480F080069002357488F090023041
:100F9A00E0FF900235E02F14FC7F36121D66ED64E7
:100FAA00016005ED64037023E4FE121D62AF0412B2
:100FBA001D66E4900234F0121C15900234E004F02D
:100FCA00E0C3940240F10EEEB420DFED6402704BF0
:100FDA00FEEE2490FF121D66AF04121D66E4900215
:100FEA0034F0121C15900234E004F0E0C39402407D
:100FFA00F10EEEB410DBE4FE121D62EC2408FF12BF
:10100A001D66E4900234F0121C15900234E004F0DC
:10101A00E0C3940240F10EEEB410DD7F36121D6675
:01102A0022A3
:101D74007F30121D667F0C121D667F06121D6602DF
:021D84001DCF71
:101AD2007F36121D66121D747F36121D66E4FE12D9
:101AE2001D627F80121D66E4FDE4FF121C29121C98
:0B1AF200290DEDB410F30EEEB420E45B
:011AFD0022C6
:101C5500D3EF9400EE940040147D6E7C00ED1D7072
:0D1C6500011CED4C70F7EF1F70E61E80E3D0
:011C7200224F
:0D155F00900100EFF0A3EBF0A3EAF0A3E988
:10156C00121D197D077F0D1219C37D037F14121DE7
:10157C00B7900100E0900106F090011C7401F0A3FB
:10158C00F0A37401F0A37406F0A37401F0A374012A
:10159C00F0A37404F07A0179061208E3EF70399025
:1015AC000104E07004A3E06410702D900106E0FECD
:1015BC00900101E0FBA3E0FAA3E0F9EE1206C09063
:1015CC000107E0FE900101E0FBA3E0FAA3E0F99033
:0A15DC000001EE1206D280027FFE2D
:0115E60022E2
:0B10EA00900181EBF0A3EAF0A3E9F015
:1010F500E4900185121D19E4FD7F0D1219C37D8051
:101105007F0E121D1E9001887493F0A37420F09039
:10111500011C7402F07B01A314F0A37401F0A37405
:1011250088F0A3EBF0A37401F0A37486F07A01793B
:10113500887F0C1208E7900184EFF07058FC7488E2
:101145002CF582E43401F583E0FE900181E0FBA3F8
:10115500E0FAA3E0F9AF048F82758300EE1206D2A0
:10116500900185E0FE74882FF582E43401F583E073
:10117500FDEE6D900185F00CECB404C274882CF57D
:1011850082E43401F583E0FF900185E06F6006900D
:10119500018474FEF07D807F0E121DB7900184E0FE
:0111A500FF4A
:0111A6002226
:0B125B009001B2EBF0A3EAF0A3E9F071
:101266009001B77493F0A37470F0E49001BDF0FCA4
:101276009001B2E0FBA3E0FAA3E0F9AF048F827518
:101286008300120693FE74B92FF582E43401F583C8
:10129600EEF09001BDE0FE8F82758300120693FD8D
:1012A600EE6D9001BDF00CECB404C59002257401FE
:1012B600F0A37401F0A374BEF07B017A0179B77DC7
:1012C600071211BE121D1A90011C7409F0A37401B5
:1012D600F0A37401F0A374B7F0A37401F0A3740132
:1012E600F0A374B5F07B017A0179B77F0C1208E799
:1012F600EF700F9001B5E07004A3E064187003FF6F
:0413060080027FFEE4
:01130A0022C0
:0B130B00900166EBF0A3EAF0A3E9F00C
:1013160090016FEFF0A3EDF0E4FF900166E0FBA310
:10132600E0FAA3E0F98F82758300120693FE7471CA
:101336002FF582E43401F583EEF00FEFB406DBE41B
:10134600FF900169E0FBA3E0FAA3E0F98F827583C1
:1013560000120693FE74772FF582E43401F583EECE
:10136600F00FEFB406DB90011C740CF0A37401F0CF
:10137600A37401F0A3746FF0A37401F0A37401F0D9
:10138600A3746DF07B017A01796F7F0E1208E790E6
:10139600016CEFF070097F08121982EF20E30690C6
:0A13A600016C74FEF090016CE0FF92
:0113B000221A
:0B1447009001C9EBF0A3EAF0A3E9F06C
:101452009001CE7430F0A3EFF09002257401F0A356
:101462007401F0A374D0F07A0179CE1211BA90010E
:101472001C7404F0A37401F0A37401F0A374CEF001
:10148200A37401F0A37401F0A374CCF07B017A0180
:1014920079CE7F0C1208E7EF70349001CCE0700433
:1014A200A3E064907028FE74CE2EF582E43401F538
:1014B20083E0FD9001C9E0FBA3E0FAA3E0F98E828C
:1014C200758300ED1206D20EEEB410DB80027FFEB1
:0114D20022F7
:0B0DAC009001E0EBF0A3EAF0A3E9F0F7
:100DB7009001E574A0F0A3EFF09002257401F0A371
:100DC7007401F0A374E7F07B017A0179E57D0212E3
:100DD70011BE90011C7404F0A37401F0A37401F018
:100DE700A374E5F0A37401F0A37401F0A374E3F016
:100DF7007B017A0179E57F0C1208E7EF7016900105
:100E0700E3E07004A3E06404700A9001E5E0540F86
:100E1700640A60027FFEEF6003020EA6FE9001E007
:100E2700E0FBA3E0FAA3E0F98E8275830012069334
:100E3700FD74E52EF582E43401F583EDF00EEEB492
:100E470010DB9002257401F0A37401F0A374F5F090
:100E57007B017A0179E57D101211BE90011C741295
:100E6700F0A37401F0A37401F0A374E5F0A3740177
:100E7700F0A37401F0A374E3F07B017A0179E57FB5
:100E87000C1208E7EF70169001E3E07004A3E0642A
:0F0E970004700A9001E5E0540F640A60027FFEC8
:010EA6002229
:10102B0090019BEBF0A3EAF0A3E9F090019AEDF0AD
:10103B009001A0EFF0A3ED1211A71208C1EF7016EB
:10104B0090019EE07004A3E06404700A9001A0E09C
:10105B00540F640A60027FFEEF7052FE90019BE01A
:10106B00FBA3E0FAA3E0F98E82758300120693FDD1
:10107B0074A02EF582E43401F583EDF00EEEB4107E
:10108B00DB9002257401F0A37401F0A374A4F07B30
:10109B00017A0179A07D041211BEE490019EF0A3A8
:1010AB00F074061208C3EF64FE6002E4FFEF702ECB
:1010BB009001A074B0F090019AE09001A11211A7D9
:1010CB001208C1EF701690019EE07004A3E0640457
:0E10DB00700A9001A0E0540F640A60027FFECC
:0110E90022E4
:050C7A009001F7EDF010
:100C7F009001FA74C2F0A3EFF09002257401F0A373
:100C8F007401F0A374FCF07B017A0179FA7D0212F2
:100C9F0011BE90011C7404F0A37401F0A37401F051
:100CAF00A374FAF0A37401F0A37401F0A374F8F025
:100CBF007B017A0179FA7F0C1208E7EF7016900129
:100CCF00F8E07004A3E06404700A9001FAE0540F96
:100CDF00640A60027FFEEF70529001FAF0A3F0A356
:100CEF00F0A3F07B0190022504F0A37401F0A3742C
:100CFF00FEF07A0179FA7D041211BE90011C740680
:100D0F00F0A37401F0A37401F0A374FAF0A37401BB
:100D1F00F0A37401F0A374F8F07B017A0179FA7FE4
:100D2F000C1208E7EF64FE6002E4FFEF60037FFE42
:100D3F00229001FA74B0F09001F7E09001FBF0906F
:100D4F0002257401F0A37401F0A374FCF07B017A07
:100D5F000179FA7D021211BE90011C7404F0A37484
:100D6F0001F0A37401F0A374FAF0A37401F0A3745B
:100D7F0001F0A374F8F07B017A0179FA7F0C120865
:100D8F00E7EF70169001F8E07004A3E06404700AB6
:0C0D9F009001FAE0540F640A60027FFE2D
:010DAB002225
:1018130090020F7450F0E4A3F07B0190022504F0D2
:10182300A37402F0A37411F07A02790F7D021211EE
:10183300BE90011C7404F0A37401F0A37402F0A31E
:10184300740FF0A37401F0A37402F0A3740DF07B82
:10185300017A02790F7F0C1208E790020CEFF07FF8
:011863000084
:011864002261
:1011A700F09002257401F0A37401F0A374A2F07A01
:0711B7000179A07B017D021C
:0E11BE00900221EBF0A3EAF0A3E9F0A3EDF01C
:1011CC007D047F05121D1E1219BF7D807F0A121D22
:1011DC00B7E4900228F0900224E0FF900228E0FE91
:1011EC00C39F5021900221E0FBA3E0FAA3E0F98E0B
:1011FC0082758300120693FD7F091219C390022891
:10120C00E004F080D17D037F011219C39002287491
:10121C00FFF07F05121982900228E014F0E06004C0
:10122C00EF30E2EE7F22121982900225E0FBA3E060
:10123C00FAA3E0F9EF1206C07F2112198290022561
:0F124C00E0FBA3E0FAA3E0F9900001EF0206D265
:10193800D29400C29400D2947F0A7E00121C557D76
:101948000F7F011219C3007D3D7F111219C37D1E3F
:101958007F2D1219C3E4FD7F2C1219C37D8D7F2AB8
:101968001219C37D3E7F2B1219C37D407F151219B2
:04197800C37F002207
:06197C00AC07AB05E4FE20
:10198200E4FEC291C290EF25E0547E4480FF7D08C0
:10199200EF30E703D38001C39292D291EF25E0FFAB
:1019A200C291DDEC7D08D291EE25E0FEA293E433F4
:0C19B2004EFEC291DDF0D290D291AF0643
:0119BE002206
:0419BF00E4FD7F01C3
:1019C300C291C290EF25E0547EFF7E08EF30E7031B
:1019D300D38001C39292D291EF25E0FFC291DEEC56
:1019E3007E08ED30E703D38001C39292D291ED25B7
:0A19F300E0FDC291DEECD290D2912B
:0119FD0022C7
:0D1DB70012197CAE07AF04EB4EFD0219C3FC
:051D1900F07D087F08C9
:0E1D1E0012197CAE07AF04EBF45EFD0219C390
:1008C100740490011CF0A37401F0A37401F0A374EB
:1008D100A0F0A37401F0A37401F0A3749EF07A0157
:0608E10079A07B017F0CF1
:1008E700900119EBF0A3EAF0A3E9F0900118EFF0FB
:1008F70090012374FEF0E4A3F0A3F0EF24F460105A
:1009070024FE70169001247412F0A37410F0800A6C
:100917009001247477F0A37430F0900124E04480B0
:10092700FD7F021219C37D807F04121D1E1219BF9D
:100937007D807F0A121DB7E4900127F0A3F0900194
:100947001CE0FF900127E0FCA3E0FDC39FEC9400AF
:100957005028900119E0FBA3E0FAA3E0F98D828CFF
:1009670083120693FD7F091219C3900128E004F052
:1009770070CC900127E004F080C4900118E0FD7F5F
:10098700011219C3E0B40C077D807F0D121DB790CB
:1009970001277402F0A37458F07F041219829001A2
:1009A70026EFF0900128E024FFF0900127E034FFC4
:1009B700F0E07002A3E06011900126E0FF20E0095B
:1009C700900125E0FEEF5E60D07D807F0D121D1E39
:1009D700900127E07002A3E07003020ACA7F0612A3
:1009E7001982EF541B6003020AC4900123F0A3E0AD
:1009F700FF900126E05F30E00690012374FFF0903E
:100A07000118E0640C6003020ACA7F0A1219829077
:100A17000126EFF07F0C121982EF5407FD6026E0E4
:100A270024FFFFE434FFFEEF7803C333CE33CED881
:100A3700F97C002DFFEC3EF9900120E0FBA3E0FAE2
:100A4700A3E0C98016900126E075F008A4FF900185
:100A570020E0FBA3E0FAA3E0F9E5F08FF01207200E
:100A6700900126E0700204F0900126E0D394124032
:100A7700037412F0E4900127F0A3F0900126E0FF41
:100A8700C3900128E09F900127E0940050357F092B
:100A970012198290011DE0FBA3E0FAA3E0F990018F
:100AA70027E0FCA3E0F5828C83EF1206D2900128A1
:100AB700E004F070C6900127E004F080BE900123A7
:100AC70074FEF07D807F0C121DB71219BF900123B1
:020AD700E0FF3E
:010AD90022FA
:101D86007F14121982EF540370077D037F14121D0E
:011D9600B795
:011D97002229
:070003007D037F14021D1EA6
:1018F300CAD6BBFAB3E4B5E7D7AE0052464944CBE8
:10190300A2BFA8CFB5CDB300D6F7BFD8D0BEC6AC63
:1019130052433532322000C7EBC4FACBA2BFA8B37F
:10192300E4B5E7A3A12000BFA8BAC53A00BFA8C089
:05193300E0D0CD3A00F8
:041BC9007F057E0016
:0A1BCD00EF1FAC0670011E4C6017FC
:101BD700E4900100F0900100E0C394FA50E800009F
:071BE7000000E004F080EEB5
:011BEE0022D4
:101CF200C295D296D29400000000E580339200C2D1
:031D020094A200A8
:011D050022BB
:101C7300121CF240FBC295C296C29400008F8000F2
:0C1C8300000000D29400000000C2942277
:101CAA00121CF240FBD295C296C2948F80000000AB
:0A1CBA0000D29400000000C2942242
:101BEF00D2B47F34121C73121BC97F30121C7312B4
:101BFF001BC97F0C121C73121BC97F01121C737F30
:061C0F00057E00021BCD62
:10175D007F0A7E00121BCDE4FDFF121B7FE4FEEE1F
:10176D009018F393FF6006121CAA0E80F2121B7BD9
:10177D00E4FEEE9018FE93FF6006121CAA0E80F296
:10178D00E4FD7F02121B7FE4FEEE90190B93FF60C8
:10179D0006121CAA0E80F2E4FD7F03121B7FE4FEED
:0E17AD00EE90191A93FF6006121CAA0E80F22D
:0117BB00220B
:041B7B00E4FD7F0105
:101B7F00EF70047F808016EFB401047F90800EEF2A
:101B8F00B402047F888006EFB403027F98EF2DFF25
:031B9F00021C73B2
:0C18AD0074E32CF582E43400F583E0FFC6
:0218B900AE0778
:1018BB00EE54F0C4540FFDD39409ED400A75F009B2
:1018CB0084E5F0244080022430FF121CAAEE540F52
:1018DB00FDD39409ED400A75F00984E5F0244080AE
:0718EB00022430FF121CAAC9
:0118F20022D3
:101A70007F01121C73121BC9E4FDFF121B7FE4FCE3
:101A8000EC90193093FF121CAA0CECB408F2E4FCA1
:101A9000EC2404FDE4FF121B7F1218AD0CECB40221
:011AA000EF56
:011AA1002222
:101B2800121BC9121B7BE4FCEC90192A93FF121CB0
:101B3800AA0CECB406F2E4FCEC2403FD7F01121BB2
:091B48007F1218AD0CECB404EF9F
:011B51002271
:030000000214D314
:0C14D300787FE4F6D8FD75812102151A1F
:10067A00BB010689828A83E0225002E722BBFE027E
:09068A00E32289828A83E49322B1
:10069300BB010CE58229F582E5833AF583E022501C
:1006A30006E92582F8E622BBFE06E92582F8E22266
:0D06B300E58229F582E5833AF583E4932280
:1006C000BB010689828A83F0225002F722BBFE0119
:0206D000F32213
:1006D200F8BB010DE58229F582E5833AF583E8F05E
:1006E200225006E92582C8F622BBFE05E92582C80A
:0206F200F222F2
:1006F400C5F0F8A3E028F0C5F0F8E5821582700291
:060704001583E038F0222D
:10070A00A3F8E0C5F025F0F0E582158270021583A2
:06071A00E0C838F0E822FF
:10072000BB010A89828A83F0E5F0A3F0225006F724
:0F07300009A7F01922BBFE06F3E5F009F3192221
:10073F00E88FF0A4CC8BF0A42CFCE98EF0A42CFC59
:10074F008AF0EDA42CFCEA8EF0A4CDA8F08BF0A4D7
:10075F002DCC3825F0FDE98FF0A42CCD35F0FCEB36
:10076F008EF0A4FEA9F0EB8FF0A4CFC5F02ECD39FB
:0F077F00FEE43CFCEAA42DCE35F0FDE43CFC2268
:10078E0075F008758200EF2FFFEE33FECD33CDCC22
:10079E0033CCC58233C5829BED9AEC99E5829840A5
:1007AE000CF582EE9BFEED9AFDEC99FC0FD5F0D682
:1007BE00E4CEFBE4CDFAE4CCF9A88222B800C1B9AC
:1007CE000059BA002DEC8BF084CFCECDFCE5F0CBEA
:1007DE00F97818EF2FFFEE33FEED33FDEC33FCEB23
:1007EE0033FB10D703994004EB99FB0FD8E5E4F9DE
:1007FE00FA227818EF2FFFEE33FEED33FDEC33FCCB
:10080E00C933C910D7059BE99A4007EC9BFCE99ABE
:10081E00F90FD8E0E4C9FAE4CCFB2275F010EF2F03
:10082E00FFEE33FEED33FDCC33CCC833C810D70703
:10083E009BEC9AE899400AED9BFDEC9AFCE899F83E
:0E084E000FD5F0DAE4CDFBE4CCFAE4C8F922D1
:10085C00E8600FEFC333FFEE33FEED33FDEC33FCFA
:03086C00D8F1229E
:0C086F00ECF0A3EDF0A3EEF0A3EFF022FC
:10002600E508243FF582E43401F583E005082290D3
:10003600013C30070390013FE475F00112087B0292
:10004600067A2000E97F2ED2008018EF540F249004
:10005600D43440D4FF30040BEF24BFB41A0050034D
:100066002461FFE50960021509050CE50C7002051F
:100076000B30070E90013CE475F00112087BEF028D
:1000860006C0021BA27403D2078003E4C207F50868
:1000960090013C120892E4F509F50BF50CE50960B0
:1000A600077F2012006980F5750AFFC201C200C2EF
:1000B60002C203C205C206C208120035FF700D3027
:1000C60007057F0012007AAF0CAE0B22B4255FC283
:1000D600D5C204120035FF24D0B40A00501A75F0B8
:1000E6000A780930D50508B6FF0106C6A426F6200B
:1000F600D5047002D20380D924CFB41A00EF50047D
:10010600C2E5D20402027BD20180C6D20080C0D2F0
:100116000280BCD2D580BAD20580B47F2012006995
:100126002002077401B5090040F1120026FF1200F3
:10013600690200A3D208D2068095120026FB12009F
:1001460026FA120026F94A4B7006794C7A037BFF91
:1001560020022EE509602A7E008E82758300120633
:100166009360060EEE650A70F0C2D5EBC0E0EAC0F9
:10017600E0E9C0E0EE1202C2D0E0F9D0E0FAD0E049
:10018600FB12067AFF60AAEBC0E0EAC0E0E9C0E035
:10019600120069D0E02401F9D0E03400FAD0E0FB87
:1001A600E50A0460DCD50AD980877BFF7A0279BE2E
:1001B600D202809C791080027908C206C2088008A3
:1001C600D2D5790A8004790AC2D5E50A047002F507
:1001D6000AE4FAFDFEFF120026FC7B08200113123A
:1001E6000026FD7B1030000A120026FE120026FFB4
:1001F6007B20EC3382D592D55013C3E43000069FA2
:10020600FFE49EFEE42001039DFDE49CFCE4CBF8A4
:10021600C201EC700CCFCECDCCE824F8F870F38098
:1002260017C3EF33FFEE33FEED33FDEC33FCEB3358
:10023600FB994002FB0FD8E9EB300105F8D0E0C48A
:1002460048B201C0E00AEC4D4E4F78207B0070C2E8
:10025600EAB50A0040BCC0E01202C4D0F0D0E020EB
:100266000104C4C0E0C4B201C0F0120052D0F0D5FF
:10027600F0EB0200A312089B01405301BA5801118A
:100286004C010D4201BE4F01C64401C64901264339
:0802960001CC5501B04601B096
:10029E004501B047036C5001152D01192E013C2B61
:1002AE00011D23013A2003552A00D54800000134D0
:1002BE003F3F3F00790AA2D5200314300509B9103B
:1002CE00020404B9080104A2D5200602500104203C
:1002DE0002689202B509005034C0E07F2030031945
:1002EE007F30A20272067205500F12031BC202C2A9
:1002FE0006C205C2087F30800F300503E9C0E01248
:10030E000069300503D0E0F9D0E0B509CC3005170F
:10031E007F30B9100C1200697F583004077F788047
:10032E0003B908031200693002057F2D0200697FB0
:10033E00202008F87F2B2006F322920280CF286E11
:10034E00756C6C2900D2011200263001F8C20178BA
:10035E000930D50108F60200D52D50434958120038
:10036E00262403B405004001E49003679312005A5B
:0D037E00743A12005AD2037509040201BA44
:1014DF0002166CE493A3F8E493A34003F68001F2A1
:1014EF0008DFF48029E493A3F85407240CC8C3330E
:1014FF00C4540F4420C8834004F456800146F6DFDD
:10150F00E4800B0102040810204080901DCAE47E85
:10151F00019360BCA3FF543F30E509541FFEE493D1
:10152F00A360010ECF54C025E060A840B8E493A398
:10153F00FAE493A3F8E493A3C8C582C8CAC583CAC3
:10154F00F0A3C8C582C8CAC583CADFE9DEE780BE7B
:011DCE000014
:10087B00F8E0FBA3A3E0F925F0F0E5821582700206
:07088B001583E0FA38F022AA
:09089200EBF0A3EAF0A3E9F02267
:10089B00D083D082F8E4937012740193700DA3A3EC
:1008AB0093F8740193F5828883E473740293686000
:0608BB00EFA3A3A380DF00
:101BA200EFB40A07740D121BAD740A309811A8998C
:101BB200B8130CC2983098FDA899C298B811F630A3
:071BC20099FDC299F599227B
:00000001FF
